{
  "_format": "hh-sol-artifact-1",
  "contractName": "EventTicketNFT",
  "sourceName": "contracts/EventTicketNFT.sol",
  "abi": [
    {
      "inputs": [],
      "stateMutability": "nonpayable",
      "type": "constructor"
    },
    {
      "inputs": [
        {
          "internalType": "address",
          "name": "sender",
          "type": "address"
        },
        {
          "internalType": "uint256",
          "name": "tokenId",
          "type": "uint256"
        },
        {
          "internalType": "address",
          "name": "owner",
          "type": "address"
        }
      ],
      "name": "ERC721IncorrectOwner",
      "type": "error"
    },
    {
      "inputs": [
        {
          "internalType": "address",
          "name": "operator",
          "type": "address"
        },
        {
          "internalType": "uint256",
          "name": "tokenId",
          "type": "uint256"
        }
      ],
      "name": "ERC721InsufficientApproval",
      "type": "error"
    },
    {
      "inputs": [
        {
          "internalType": "address",
          "name": "approver",
          "type": "address"
        }
      ],
      "name": "ERC721InvalidApprover",
      "type": "error"
    },
    {
      "inputs": [
        {
          "internalType": "address",
          "name": "operator",
          "type": "address"
        }
      ],
      "name": "ERC721InvalidOperator",
      "type": "error"
    },
    {
      "inputs": [
        {
          "internalType": "address",
          "name": "owner",
          "type": "address"
        }
      ],
      "name": "ERC721InvalidOwner",
      "type": "error"
    },
    {
      "inputs": [
        {
          "internalType": "address",
          "name": "receiver",
          "type": "address"
        }
      ],
      "name": "ERC721InvalidReceiver",
      "type": "error"
    },
    {
      "inputs": [
        {
          "internalType": "address",
          "name": "sender",
          "type": "address"
        }
      ],
      "name": "ERC721InvalidSender",
      "type": "error"
    },
    {
      "inputs": [
        {
          "internalType": "uint256",
          "name": "tokenId",
          "type": "uint256"
        }
      ],
      "name": "ERC721NonexistentToken",
      "type": "error"
    },
    {
      "inputs": [
        {
          "internalType": "address",
          "name": "owner",
          "type": "address"
        }
      ],
      "name": "OwnableInvalidOwner",
      "type": "error"
    },
    {
      "inputs": [
        {
          "internalType": "address",
          "name": "account",
          "type": "address"
        }
      ],
      "name": "OwnableUnauthorizedAccount",
      "type": "error"
    },
    {
      "anonymous": false,
      "inputs": [
        {
          "indexed": true,
          "internalType": "address",
          "name": "owner",
          "type": "address"
        },
        {
          "indexed": true,
          "internalType": "address",
          "name": "approved",
          "type": "address"
        },
        {
          "indexed": true,
          "internalType": "uint256",
          "name": "tokenId",
          "type": "uint256"
        }
      ],
      "name": "Approval",
      "type": "event"
    },
    {
      "anonymous": false,
      "inputs": [
        {
          "indexed": true,
          "internalType": "address",
          "name": "owner",
          "type": "address"
        },
        {
          "indexed": true,
          "internalType": "address",
          "name": "operator",
          "type": "address"
        },
        {
          "indexed": false,
          "internalType": "bool",
          "name": "approved",
          "type": "bool"
        }
      ],
      "name": "ApprovalForAll",
      "type": "event"
    },
    {
      "anonymous": false,
      "inputs": [
        {
          "indexed": false,
          "internalType": "uint256",
          "name": "_fromTokenId",
          "type": "uint256"
        },
        {
          "indexed": false,
          "internalType": "uint256",
          "name": "_toTokenId",
          "type": "uint256"
        }
      ],
      "name": "BatchMetadataUpdate",
      "type": "event"
    },
    {
      "anonymous": false,
      "inputs": [
        {
          "indexed": false,
          "internalType": "uint256",
          "name": "_tokenId",
          "type": "uint256"
        }
      ],
      "name": "MetadataUpdate",
      "type": "event"
    },
    {
      "anonymous": false,
      "inputs": [
        {
          "indexed": true,
          "internalType": "address",
          "name": "previousOwner",
          "type": "address"
        },
        {
          "indexed": true,
          "internalType": "address",
          "name": "newOwner",
          "type": "address"
        }
      ],
      "name": "OwnershipTransferred",
      "type": "event"
    },
    {
      "anonymous": false,
      "inputs": [
        {
          "indexed": true,
          "internalType": "uint256",
          "name": "tokenId",
          "type": "uint256"
        },
        {
          "indexed": true,
          "internalType": "uint256",
          "name": "eventId",
          "type": "uint256"
        },
        {
          "indexed": true,
          "internalType": "address",
          "name": "recipient",
          "type": "address"
        },
        {
          "indexed": false,
          "internalType": "string",
          "name": "metadataURI",
          "type": "string"
        }
      ],
      "name": "TicketMinted",
      "type": "event"
    },
    {
      "anonymous": false,
      "inputs": [
        {
          "indexed": true,
          "internalType": "uint256",
          "name": "tokenId",
          "type": "uint256"
        },
        {
          "indexed": true,
          "internalType": "uint256",
          "name": "eventId",
          "type": "uint256"
        }
      ],
      "name": "TicketUsed",
      "type": "event"
    },
    {
      "anonymous": false,
      "inputs": [
        {
          "indexed": true,
          "internalType": "address",
          "name": "from",
          "type": "address"
        },
        {
          "indexed": true,
          "internalType": "address",
          "name": "to",
          "type": "address"
        },
        {
          "indexed": true,
          "internalType": "uint256",
          "name": "tokenId",
          "type": "uint256"
        }
      ],
      "name": "Transfer",
      "type": "event"
    },
    {
      "inputs": [],
      "name": "MAX_TICKETS_PER_EVENT",
      "outputs": [
        {
          "internalType": "uint256",
          "name": "",
          "type": "uint256"
        }
      ],
      "stateMutability": "view",
      "type": "function"
    },
    {
      "inputs": [
        {
          "internalType": "address",
          "name": "to",
          "type": "address"
        },
        {
          "internalType": "uint256",
          "name": "tokenId",
          "type": "uint256"
        }
      ],
      "name": "approve",
      "outputs": [],
      "stateMutability": "nonpayable",
      "type": "function"
    },
    {
      "inputs": [
        {
          "internalType": "address",
          "name": "owner",
          "type": "address"
        }
      ],
      "name": "balanceOf",
      "outputs": [
        {
          "internalType": "uint256",
          "name": "",
          "type": "uint256"
        }
      ],
      "stateMutability": "view",
      "type": "function"
    },
    {
      "inputs": [
        {
          "internalType": "uint256",
          "name": "tokenId",
          "type": "uint256"
        }
      ],
      "name": "getApproved",
      "outputs": [
        {
          "internalType": "address",
          "name": "",
          "type": "address"
        }
      ],
      "stateMutability": "view",
      "type": "function"
    },
    {
      "inputs": [
        {
          "internalType": "address",
          "name": "owner",
          "type": "address"
        },
        {
          "internalType": "uint256",
          "name": "eventId",
          "type": "uint256"
        }
      ],
      "name": "getTicketsByOwnerForEvent",
      "outputs": [
        {
          "internalType": "uint256[]",
          "name": "",
          "type": "uint256[]"
        }
      ],
      "stateMutability": "view",
      "type": "function"
    },
    {
      "inputs": [
        {
          "internalType": "uint256",
          "name": "eventId",
          "type": "uint256"
        }
      ],
      "name": "getTicketsForEvent",
      "outputs": [
        {
          "internalType": "uint256[]",
          "name": "",
          "type": "uint256[]"
        }
      ],
      "stateMutability": "view",
      "type": "function"
    },
    {
      "inputs": [
        {
          "internalType": "address",
          "name": "owner",
          "type": "address"
        },
        {
          "internalType": "address",
          "name": "operator",
          "type": "address"
        }
      ],
      "name": "isApprovedForAll",
      "outputs": [
        {
          "internalType": "bool",
          "name": "",
          "type": "bool"
        }
      ],
      "stateMutability": "view",
      "type": "function"
    },
    {
      "inputs": [
        {
          "internalType": "uint256",
          "name": "eventId",
          "type": "uint256"
        },
        {
          "internalType": "address",
          "name": "recipient",
          "type": "address"
        },
        {
          "internalType": "string",
          "name": "eventTitle",
          "type": "string"
        },
        {
          "internalType": "string",
          "name": "metadataURI",
          "type": "string"
        }
      ],
      "name": "mintTicket",
      "outputs": [],
      "stateMutability": "payable",
      "type": "function"
    },
    {
      "inputs": [],
      "name": "name",
      "outputs": [
        {
          "internalType": "string",
          "name": "",
          "type": "string"
        }
      ],
      "stateMutability": "view",
      "type": "function"
    },
    {
      "inputs": [],
      "name": "owner",
      "outputs": [
        {
          "internalType": "address",
          "name": "",
          "type": "address"
        }
      ],
      "stateMutability": "view",
      "type": "function"
    },
    {
      "inputs": [
        {
          "internalType": "uint256",
          "name": "tokenId",
          "type": "uint256"
        }
      ],
      "name": "ownerOf",
      "outputs": [
        {
          "internalType": "address",
          "name": "",
          "type": "address"
        }
      ],
      "stateMutability": "view",
      "type": "function"
    },
    {
      "inputs": [],
      "name": "renounceOwnership",
      "outputs": [],
      "stateMutability": "nonpayable",
      "type": "function"
    },
    {
      "inputs": [
        {
          "internalType": "address",
          "name": "from",
          "type": "address"
        },
        {
          "internalType": "address",
          "name": "to",
          "type": "address"
        },
        {
          "internalType": "uint256",
          "name": "tokenId",
          "type": "uint256"
        }
      ],
      "name": "safeTransferFrom",
      "outputs": [],
      "stateMutability": "nonpayable",
      "type": "function"
    },
    {
      "inputs": [
        {
          "internalType": "address",
          "name": "from",
          "type": "address"
        },
        {
          "internalType": "address",
          "name": "to",
          "type": "address"
        },
        {
          "internalType": "uint256",
          "name": "tokenId",
          "type": "uint256"
        },
        {
          "internalType": "bytes",
          "name": "data",
          "type": "bytes"
        }
      ],
      "name": "safeTransferFrom",
      "outputs": [],
      "stateMutability": "nonpayable",
      "type": "function"
    },
    {
      "inputs": [
        {
          "internalType": "address",
          "name": "operator",
          "type": "address"
        },
        {
          "internalType": "bool",
          "name": "approved",
          "type": "bool"
        }
      ],
      "name": "setApprovalForAll",
      "outputs": [],
      "stateMutability": "nonpayable",
      "type": "function"
    },
    {
      "inputs": [
        {
          "internalType": "uint256",
          "name": "newPrice",
          "type": "uint256"
        }
      ],
      "name": "setTicketPrice",
      "outputs": [],
      "stateMutability": "nonpayable",
      "type": "function"
    },
    {
      "inputs": [
        {
          "internalType": "bytes4",
          "name": "interfaceId",
          "type": "bytes4"
        }
      ],
      "name": "supportsInterface",
      "outputs": [
        {
          "internalType": "bool",
          "name": "",
          "type": "bool"
        }
      ],
      "stateMutability": "view",
      "type": "function"
    },
    {
      "inputs": [],
      "name": "symbol",
      "outputs": [
        {
          "internalType": "string",
          "name": "",
          "type": "string"
        }
      ],
      "stateMutability": "view",
      "type": "function"
    },
    {
      "inputs": [],
      "name": "ticketPrice",
      "outputs": [
        {
          "internalType": "uint256",
          "name": "",
          "type": "uint256"
        }
      ],
      "stateMutability": "view",
      "type": "function"
    },
    {
      "inputs": [
        {
          "internalType": "uint256",
          "name": "",
          "type": "uint256"
        }
      ],
      "name": "tickets",
      "outputs": [
        {
          "internalType": "uint256",
          "name": "eventId",
          "type": "uint256"
        },
        {
          "internalType": "bool",
          "name": "isUsed",
          "type": "bool"
        },
        {
          "internalType": "uint256",
          "name": "mintedAt",
          "type": "uint256"
        },
        {
          "internalType": "string",
          "name": "eventTitle",
          "type": "string"
        }
      ],
      "stateMutability": "view",
      "type": "function"
    },
    {
      "inputs": [
        {
          "internalType": "uint256",
          "name": "",
          "type": "uint256"
        },
        {
          "internalType": "address",
          "name": "",
          "type": "address"
        }
      ],
      "name": "ticketsPerEvent",
      "outputs": [
        {
          "internalType": "uint256",
          "name": "",
          "type": "uint256"
        }
      ],
      "stateMutability": "view",
      "type": "function"
    },
    {
      "inputs": [
        {
          "internalType": "uint256",
          "name": "tokenId",
          "type": "uint256"
        }
      ],
      "name": "tokenURI",
      "outputs": [
        {
          "internalType": "string",
          "name": "",
          "type": "string"
        }
      ],
      "stateMutability": "view",
      "type": "function"
    },
    {
      "inputs": [
        {
          "internalType": "address",
          "name": "from",
          "type": "address"
        },
        {
          "internalType": "address",
          "name": "to",
          "type": "address"
        },
        {
          "internalType": "uint256",
          "name": "tokenId",
          "type": "uint256"
        }
      ],
      "name": "transferFrom",
      "outputs": [],
      "stateMutability": "nonpayable",
      "type": "function"
    },
    {
      "inputs": [
        {
          "internalType": "address",
          "name": "newOwner",
          "type": "address"
        }
      ],
      "name": "transferOwnership",
      "outputs": [],
      "stateMutability": "nonpayable",
      "type": "function"
    },
    {
      "inputs": [
        {
          "internalType": "uint256",
          "name": "tokenId",
          "type": "uint256"
        }
      ],
      "name": "useTicket",
      "outputs": [],
      "stateMutability": "nonpayable",
      "type": "function"
    },
    {
      "inputs": [],
      "name": "withdraw",
      "outputs": [],
      "stateMutability": "nonpayable",
      "type": "function"
    }
  ],
  "bytecode": "0x60806040526001600855662386f26fc10000600b553480156200002157600080fd5b50336040518060400160405280601081526020016f115d995b9d08151a58dad95d0813919560821b81525060405180604001604052806005815260200164115513919560da1b81525081600090816200007b9190620001c5565b5060016200008a8282620001c5565b5050506001600160a01b038116620000bc57604051631e4fbdf760e01b81526000600482015260240160405180910390fd5b620000c781620000ce565b5062000291565b600780546001600160a01b038381166001600160a01b0319831681179093556040519116919082907f8be0079c531659141344cd1fd0a4f28419497f9722a3daafe3b4186f6b6457e090600090a35050565b634e487b7160e01b600052604160045260246000fd5b600181811c908216806200014b57607f821691505b6020821081036200016c57634e487b7160e01b600052602260045260246000fd5b50919050565b601f821115620001c057600081815260208120601f850160051c810160208610156200019b5750805b601f850160051c820191505b81811015620001bc57828155600101620001a7565b5050505b505050565b81516001600160401b03811115620001e157620001e162000120565b620001f981620001f2845462000136565b8462000172565b602080601f831160018114620002315760008415620002185750858301515b600019600386901b1c1916600185901b178555620001bc565b600085815260208120601f198616915b82811015620002625788860151825594840194600190910190840162000241565b5085821015620002815787850151600019600388901b60f8161c191681555b5050505050600190811b01905550565b611ee980620002a16000396000f3fe6080604052600436106101815760003560e01c806359aa5478116100d157806395d89b411161008a578063b88d4fde11610064578063b88d4fde14610475578063c87b56dd14610495578063e985e9c5146104b5578063f2fde38b146104d557600080fd5b806395d89b411461042d578063a22cb46514610442578063b15ecded1461046257600080fd5b806359aa54781461036d57806360fe27cb146103825780636352211e146103ba57806370a08231146103da578063715018a6146103fa5780638da5cb5b1461040f57600080fd5b806323b872dd1161013e5780633ccfd60b116101185780633ccfd60b146102e857806342842e0e146102fd57806350b447121461031d578063573a38121461034d57600080fd5b806323b872dd1461027b578063266064481461029b5780632e3c78b8146102bb57600080fd5b806301ffc9a71461018657806306fdde03146101bb578063081812fc146101dd578063095ea7b3146102155780631209b1f614610237578063159816501461025b575b600080fd5b34801561019257600080fd5b506101a66101a13660046118d1565b6104f5565b60405190151581526020015b60405180910390f35b3480156101c757600080fd5b506101d0610506565b6040516101b2919061193e565b3480156101e957600080fd5b506101fd6101f8366004611951565b610598565b6040516001600160a01b0390911681526020016101b2565b34801561022157600080fd5b50610235610230366004611986565b6105c1565b005b34801561024357600080fd5b5061024d600b5481565b6040519081526020016101b2565b34801561026757600080fd5b50610235610276366004611951565b6105d0565b34801561028757600080fd5b506102356102963660046119b0565b6105dd565b3480156102a757600080fd5b506102356102b6366004611951565b61066d565b3480156102c757600080fd5b506102db6102d6366004611951565b610775565b6040516101b291906119ec565b3480156102f457600080fd5b5061023561087f565b34801561030957600080fd5b506102356103183660046119b0565b610974565b34801561032957600080fd5b5061033d610338366004611951565b610994565b6040516101b29493929190611a24565b34801561035957600080fd5b506102db610368366004611986565b610a4b565b34801561037957600080fd5b5061024d600481565b34801561038e57600080fd5b5061024d61039d366004611a55565b600960209081526000928352604080842090915290825290205481565b3480156103c657600080fd5b506101fd6103d5366004611951565b610ba0565b3480156103e657600080fd5b5061024d6103f5366004611a81565b610bab565b34801561040657600080fd5b50610235610bf3565b34801561041b57600080fd5b506007546001600160a01b03166101fd565b34801561043957600080fd5b506101d0610c07565b34801561044e57600080fd5b5061023561045d366004611a9c565b610c16565b610235610470366004611b84565b610c21565b34801561048157600080fd5b50610235610490366004611c02565b610e8a565b3480156104a157600080fd5b506101d06104b0366004611951565b610ea2565b3480156104c157600080fd5b506101a66104d0366004611c72565b610ead565b3480156104e157600080fd5b506102356104f0366004611a81565b610edb565b600061050082610f19565b92915050565b60606000805461051590611c9c565b80601f016020809104026020016040519081016040528092919081815260200182805461054190611c9c565b801561058e5780601f106105635761010080835404028352916020019161058e565b820191906000526020600020905b81548152906001019060200180831161057157829003601f168201915b5050505050905090565b60006105a382610f3e565b506000828152600460205260409020546001600160a01b0316610500565b6105cc828233610f77565b5050565b6105d8610f84565b600b55565b6001600160a01b03821661060c57604051633250574960e11b8152600060048201526024015b60405180910390fd5b6000610619838333610fb1565b9050836001600160a01b0316816001600160a01b031614610667576040516364283d7b60e01b81526001600160a01b0380861660048301526024820184905282166044820152606401610603565b50505050565b610675610f84565b6000818152600260205260409020546001600160a01b03166106d05760405162461bcd60e51b8152602060048201526014602482015273151bdad95b88191bd95cc81b9bdd08195e1a5cdd60621b6044820152606401610603565b6000818152600a602052604090206001015460ff16156107285760405162461bcd60e51b8152602060048201526013602482015272151a58dad95d08185b1c9958591e481d5cd959606a1b6044820152606401610603565b6000818152600a60205260408082206001818101805460ff19169091179055549051909183917fad0a02848182e7d3a9bb0ae2cc919bdef92f9da6b0a45ced3656cf5443212ede9190a350565b6060600060016008546107889190611cec565b9050600060015b8281116107cc576000818152600a60205260409020548590036107ba57816107b681611cff565b9250505b806107c481611cff565b91505061078f565b5060008167ffffffffffffffff8111156107e8576107e8611ad8565b604051908082528060200260200182016040528015610811578160200160208202803683370190505b509050600060015b848111610874576000818152600a6020526040902054879003610862578083838151811061084957610849611d18565b60209081029190910101528161085e81611cff565b9250505b8061086c81611cff565b915050610819565b509095945050505050565b610887610f84565b47806108cc5760405162461bcd60e51b81526020600482015260146024820152734e6f2066756e647320746f20776974686472617760601b6044820152606401610603565b60006108e06007546001600160a01b031690565b6001600160a01b03168260405160006040518083038185875af1925050503d806000811461092a576040519150601f19603f3d011682016040523d82523d6000602084013e61092f565b606091505b50509050806105cc5760405162461bcd60e51b815260206004820152601160248201527015da5d1a191c985dd85b0819985a5b1959607a1b6044820152606401610603565b61098f83838360405180602001604052806000815250610e8a565b505050565b600a602052600090815260409020805460018201546002830154600384018054939460ff909316939192916109c890611c9c565b80601f01602080910402602001604051908101604052809291908181526020018280546109f490611c9c565b8015610a415780601f10610a1657610100808354040283529160200191610a41565b820191906000526020600020905b815481529060010190602001808311610a2457829003601f168201915b5050505050905084565b606060006001600854610a5e9190611cec565b9050600060015b828111610ac7576000818152600260205260409020546001600160a01b038781169116148015610aa257506000818152600a602052604090205485145b15610ab55781610ab181611cff565b9250505b80610abf81611cff565b915050610a65565b5060008167ffffffffffffffff811115610ae357610ae3611ad8565b604051908082528060200260200182016040528015610b0c578160200160208202803683370190505b509050600060015b848111610b94576000818152600260205260409020546001600160a01b038981169116148015610b5157506000818152600a602052604090205487145b15610b825780838381518110610b6957610b69611d18565b602090810291909101015281610b7e81611cff565b9250505b80610b8c81611cff565b915050610b14565b50909695505050505050565b600061050082610f3e565b60006001600160a01b038216610bd7576040516322718ad960e21b815260006004820152602401610603565b506001600160a01b031660009081526003602052604090205490565b610bfb610f84565b610c0560006110aa565b565b60606001805461051590611c9c565b6105cc3383836110fc565b60008411610c645760405162461bcd60e51b815260206004820152601060248201526f125b9d985b1a5908195d995b9d08125160821b6044820152606401610603565b6001600160a01b038316610cae5760405162461bcd60e51b8152602060048201526011602482015270125b9d985b1a59081c9958da5c1a595b9d607a1b6044820152606401610603565b600b54341015610cf75760405162461bcd60e51b8152602060048201526014602482015273125b9cdd59999a58da595b9d081c185e5b595b9d60621b6044820152606401610603565b60008481526009602090815260408083206001600160a01b0387168452909152902054600411610d785760405162461bcd60e51b815260206004820152602660248201527f4d6178696d756d207469636b657473207265616368656420666f72207468697360448201526508195d995b9d60d21b6064820152608401610603565b6008805460009182610d8983611cff565b9091555060008681526009602090815260408083206001600160a01b03891684529091528120805492935090610dbe83611cff565b909155505060408051608081018252868152600060208083018281524284860190815260608501898152878552600a9093529490922083518155915160018301805460ff19169115159190911790559251600282015591519091906003820190610e289082611d74565b50905050610e36848261119b565b610e4081836111b5565b836001600160a01b031685827f788aac23bf3a0178a9d13b62024cd754d0570909f1f9f3f441dff4dfe2579f6f85604051610e7b919061193e565b60405180910390a45050505050565b610e958484846105dd565b6106673385858585611205565b606061050082611330565b6001600160a01b03918216600090815260056020908152604080832093909416825291909152205460ff1690565b610ee3610f84565b6001600160a01b038116610f0d57604051631e4fbdf760e01b815260006004820152602401610603565b610f16816110aa565b50565b60006001600160e01b03198216632483248360e11b1480610500575061050082611441565b6000818152600260205260408120546001600160a01b03168061050057604051637e27328960e01b815260048101849052602401610603565b61098f8383836001611491565b6007546001600160a01b03163314610c055760405163118cdaa760e01b8152336004820152602401610603565b6000828152600260205260408120546001600160a01b0390811690831615610fde57610fde818486611597565b6001600160a01b0381161561101c57610ffb600085600080611491565b6001600160a01b038116600090815260036020526040902080546000190190555b6001600160a01b0385161561104b576001600160a01b0385166000908152600360205260409020805460010190555b60008481526002602052604080822080546001600160a01b0319166001600160a01b0389811691821790925591518793918516917fddf252ad1be2c89b69c2b068fc378daa952ba7f163c4a11628f55a4df523b3ef91a4949350505050565b600780546001600160a01b038381166001600160a01b0319831681179093556040519116919082907f8be0079c531659141344cd1fd0a4f28419497f9722a3daafe3b4186f6b6457e090600090a35050565b6001600160a01b03821661112e57604051630b61174360e31b81526001600160a01b0383166004820152602401610603565b6001600160a01b03838116600081815260056020908152604080832094871680845294825291829020805460ff191686151590811790915591519182527f17307eab39ab6107e8899845ad3d59bd9653f200f220920489ca2b5937696c31910160405180910390a3505050565b6105cc8282604051806020016040528060008152506115fb565b60008281526006602052604090206111cd8282611d74565b506040518281527ff8e1a15aba9398e019f0b49df1a4fde98ee17ae345cb5f6b5e2c27f5033e8ce79060200160405180910390a15050565b6001600160a01b0383163b1561132957604051630a85bd0160e11b81526001600160a01b0384169063150b7a0290611247908890889087908790600401611e34565b6020604051808303816000875af1925050508015611282575060408051601f3d908101601f1916820190925261127f91810190611e67565b60015b6112eb573d8080156112b0576040519150601f19603f3d011682016040523d82523d6000602084013e6112b5565b606091505b5080516000036112e357604051633250574960e11b81526001600160a01b0385166004820152602401610603565b805160208201fd5b6001600160e01b03198116630a85bd0160e11b1461132757604051633250574960e11b81526001600160a01b0385166004820152602401610603565b505b5050505050565b606061133b82610f3e565b506000828152600660205260408120805461135590611c9c565b80601f016020809104026020016040519081016040528092919081815260200182805461138190611c9c565b80156113ce5780601f106113a3576101008083540402835291602001916113ce565b820191906000526020600020905b8154815290600101906020018083116113b157829003601f168201915b5050505050905060006113ec60408051602081019091526000815290565b905080516000036113fe575092915050565b815115611430578082604051602001611418929190611e84565b60405160208183030381529060405292505050919050565b61143984611613565b949350505050565b60006001600160e01b031982166380ac58cd60e01b148061147257506001600160e01b03198216635b5e139f60e01b145b8061050057506301ffc9a760e01b6001600160e01b0319831614610500565b80806114a557506001600160a01b03821615155b156115675760006114b584610f3e565b90506001600160a01b038316158015906114e15750826001600160a01b0316816001600160a01b031614155b80156114f457506114f28184610ead565b155b1561151d5760405163a9fbf51f60e01b81526001600160a01b0384166004820152602401610603565b81156115655783856001600160a01b0316826001600160a01b03167f8c5be1e5ebec7d5bd14f71427d1e84f3dd0314c0f7b2291e5b200ac8c7c3b92560405160405180910390a45b505b5050600090815260046020526040902080546001600160a01b0319166001600160a01b0392909216919091179055565b6115a2838383611688565b61098f576001600160a01b0383166115d057604051637e27328960e01b815260048101829052602401610603565b60405163177e802f60e01b81526001600160a01b038316600482015260248101829052604401610603565b61160583836116eb565b61098f336000858585611205565b606061161e82610f3e565b50600061163660408051602081019091526000815290565b905060008151116116565760405180602001604052806000815250611681565b8061166084611750565b604051602001611671929190611e84565b6040516020818303038152906040525b9392505050565b60006001600160a01b038316158015906114395750826001600160a01b0316846001600160a01b031614806116c257506116c28484610ead565b806114395750506000908152600460205260409020546001600160a01b03908116911614919050565b6001600160a01b03821661171557604051633250574960e11b815260006004820152602401610603565b600061172383836000610fb1565b90506001600160a01b0381161561098f576040516339e3563760e11b815260006004820152602401610603565b6060600061175d836117e3565b600101905060008167ffffffffffffffff81111561177d5761177d611ad8565b6040519080825280601f01601f1916602001820160405280156117a7576020820181803683370190505b5090508181016020015b600019016f181899199a1a9b1b9c1cb0b131b232b360811b600a86061a8153600a85049450846117b157509392505050565b60008072184f03e93ff9f4daa797ed6e38ed64bf6a1f0160401b83106118225772184f03e93ff9f4daa797ed6e38ed64bf6a1f0160401b830492506040015b6d04ee2d6d415b85acef8100000000831061184e576d04ee2d6d415b85acef8100000000830492506020015b662386f26fc10000831061186c57662386f26fc10000830492506010015b6305f5e1008310611884576305f5e100830492506008015b612710831061189857612710830492506004015b606483106118aa576064830492506002015b600a83106105005760010192915050565b6001600160e01b031981168114610f1657600080fd5b6000602082840312156118e357600080fd5b8135611681816118bb565b60005b838110156119095781810151838201526020016118f1565b50506000910152565b6000815180845261192a8160208601602086016118ee565b601f01601f19169290920160200192915050565b6020815260006116816020830184611912565b60006020828403121561196357600080fd5b5035919050565b80356001600160a01b038116811461198157600080fd5b919050565b6000806040838503121561199957600080fd5b6119a28361196a565b946020939093013593505050565b6000806000606084860312156119c557600080fd5b6119ce8461196a565b92506119dc6020850161196a565b9150604084013590509250925092565b6020808252825182820181905260009190848201906040850190845b81811015610b9457835183529284019291840191600101611a08565b8481528315156020820152826040820152608060608201526000611a4b6080830184611912565b9695505050505050565b60008060408385031215611a6857600080fd5b82359150611a786020840161196a565b90509250929050565b600060208284031215611a9357600080fd5b6116818261196a565b60008060408385031215611aaf57600080fd5b611ab88361196a565b915060208301358015158114611acd57600080fd5b809150509250929050565b634e487b7160e01b600052604160045260246000fd5b600067ffffffffffffffff80841115611b0957611b09611ad8565b604051601f8501601f19908116603f01168101908282118183101715611b3157611b31611ad8565b81604052809350858152868686011115611b4a57600080fd5b858560208301376000602087830101525050509392505050565b600082601f830112611b7557600080fd5b61168183833560208501611aee565b60008060008060808587031215611b9a57600080fd5b84359350611baa6020860161196a565b9250604085013567ffffffffffffffff80821115611bc757600080fd5b611bd388838901611b64565b93506060870135915080821115611be957600080fd5b50611bf687828801611b64565b91505092959194509250565b60008060008060808587031215611c1857600080fd5b611c218561196a565b9350611c2f6020860161196a565b925060408501359150606085013567ffffffffffffffff811115611c5257600080fd5b8501601f81018713611c6357600080fd5b611bf687823560208401611aee565b60008060408385031215611c8557600080fd5b611c8e8361196a565b9150611a786020840161196a565b600181811c90821680611cb057607f821691505b602082108103611cd057634e487b7160e01b600052602260045260246000fd5b50919050565b634e487b7160e01b600052601160045260246000fd5b8181038181111561050057610500611cd6565b600060018201611d1157611d11611cd6565b5060010190565b634e487b7160e01b600052603260045260246000fd5b601f82111561098f57600081815260208120601f850160051c81016020861015611d555750805b601f850160051c820191505b8181101561132757828155600101611d61565b815167ffffffffffffffff811115611d8e57611d8e611ad8565b611da281611d9c8454611c9c565b84611d2e565b602080601f831160018114611dd75760008415611dbf5750858301515b600019600386901b1c1916600185901b178555611327565b600085815260208120601f198616915b82811015611e0657888601518255948401946001909101908401611de7565b5085821015611e245787850151600019600388901b60f8161c191681555b5050505050600190811b01905550565b6001600160a01b0385811682528416602082015260408101839052608060608201819052600090611a4b90830184611912565b600060208284031215611e7957600080fd5b8151611681816118bb565b60008351611e968184602088016118ee565b835190830190611eaa8183602088016118ee565b0194935050505056fea2646970667358221220baba89e47544e4584dd182be51cbebe75c75486c4919c76e9a7095ef31107c1264736f6c63430008140033",
  "linkReferences": {},
  "deployedLinkReferences": {}
}